{
  "abi": [
    {
      "inputs": [],
      "stateMutability": "nonpayable",
      "type": "constructor"
    },
    {
      "anonymous": false,
      "inputs": [
        {
          "indexed": false,
          "internalType": "uint256",
          "name": "offerId",
          "type": "uint256"
        },
        {
          "indexed": false,
          "internalType": "string",
          "name": "actionType",
          "type": "string"
        },
        {
          "indexed": false,
          "internalType": "enum Escrow.Status",
          "name": "status",
          "type": "uint8"
        },
        {
          "indexed": true,
          "internalType": "address",
          "name": "executor",
          "type": "address"
        }
      ],
      "name": "Action",
      "type": "event"
    },
    {
      "inputs": [
        {
          "internalType": "uint256",
          "name": "offerId",
          "type": "uint256"
        }
      ],
      "name": "applyOffer",
      "outputs": [
        {
          "internalType": "bool",
          "name": "",
          "type": "bool"
        }
      ],
      "stateMutability": "nonpayable",
      "type": "function"
    },
    {
      "inputs": [
        {
          "internalType": "uint256",
          "name": "offerId",
          "type": "uint256"
        },
        {
          "internalType": "address",
          "name": "worker",
          "type": "address"
        }
      ],
      "name": "approveWorker",
      "outputs": [
        {
          "internalType": "bool",
          "name": "",
          "type": "bool"
        }
      ],
      "stateMutability": "nonpayable",
      "type": "function"
    },
    {
      "inputs": [
        {
          "internalType": "uint256",
          "name": "offerId",
          "type": "uint256"
        },
        {
          "internalType": "bool",
          "name": "provided",
          "type": "bool"
        }
      ],
      "name": "confirmWork",
      "outputs": [
        {
          "internalType": "bool",
          "name": "",
          "type": "bool"
        }
      ],
      "stateMutability": "nonpayable",
      "type": "function"
    },
    {
      "inputs": [
        {
          "internalType": "string",
          "name": "offerName",
          "type": "string"
        }
      ],
      "name": "createOffer",
      "outputs": [
        {
          "internalType": "bool",
          "name": "",
          "type": "bool"
        }
      ],
      "stateMutability": "payable",
      "type": "function"
    },
    {
      "inputs": [],
      "name": "escrowAcc",
      "outputs": [
        {
          "internalType": "address",
          "name": "",
          "type": "address"
        }
      ],
      "stateMutability": "view",
      "type": "function"
    },
    {
      "inputs": [],
      "name": "escrowBal",
      "outputs": [
        {
          "internalType": "uint256",
          "name": "",
          "type": "uint256"
        }
      ],
      "stateMutability": "view",
      "type": "function"
    },
    {
      "inputs": [
        {
          "internalType": "uint256",
          "name": "offerId",
          "type": "uint256"
        }
      ],
      "name": "getOffer",
      "outputs": [
        {
          "components": [
            {
              "internalType": "uint256",
              "name": "offerId",
              "type": "uint256"
            },
            {
              "internalType": "string",
              "name": "name",
              "type": "string"
            },
            {
              "internalType": "uint256",
              "name": "amount",
              "type": "uint256"
            },
            {
              "internalType": "address",
              "name": "owner",
              "type": "address"
            },
            {
              "internalType": "address",
              "name": "worker",
              "type": "address"
            },
            {
              "internalType": "enum Escrow.Status",
              "name": "status",
              "type": "uint8"
            },
            {
              "internalType": "bool",
              "name": "provided",
              "type": "bool"
            },
            {
              "internalType": "bool",
              "name": "confirmed",
              "type": "bool"
            }
          ],
          "internalType": "struct Escrow.OffersStruct",
          "name": "",
          "type": "tuple"
        }
      ],
      "stateMutability": "view",
      "type": "function"
    },
    {
      "inputs": [],
      "name": "getOffers",
      "outputs": [
        {
          "components": [
            {
              "internalType": "uint256",
              "name": "offerId",
              "type": "uint256"
            },
            {
              "internalType": "string",
              "name": "name",
              "type": "string"
            },
            {
              "internalType": "uint256",
              "name": "amount",
              "type": "uint256"
            },
            {
              "internalType": "address",
              "name": "owner",
              "type": "address"
            },
            {
              "internalType": "address",
              "name": "worker",
              "type": "address"
            },
            {
              "internalType": "enum Escrow.Status",
              "name": "status",
              "type": "uint8"
            },
            {
              "internalType": "bool",
              "name": "provided",
              "type": "bool"
            },
            {
              "internalType": "bool",
              "name": "confirmed",
              "type": "bool"
            }
          ],
          "internalType": "struct Escrow.OffersStruct[]",
          "name": "props",
          "type": "tuple[]"
        }
      ],
      "stateMutability": "view",
      "type": "function"
    },
    {
      "inputs": [
        {
          "internalType": "uint256",
          "name": "",
          "type": "uint256"
        }
      ],
      "name": "isAvailable",
      "outputs": [
        {
          "internalType": "enum Escrow.Available",
          "name": "",
          "type": "uint8"
        }
      ],
      "stateMutability": "view",
      "type": "function"
    },
    {
      "inputs": [],
      "name": "myOffers",
      "outputs": [
        {
          "components": [
            {
              "internalType": "uint256",
              "name": "offerId",
              "type": "uint256"
            },
            {
              "internalType": "string",
              "name": "name",
              "type": "string"
            },
            {
              "internalType": "uint256",
              "name": "amount",
              "type": "uint256"
            },
            {
              "internalType": "address",
              "name": "owner",
              "type": "address"
            },
            {
              "internalType": "address",
              "name": "worker",
              "type": "address"
            },
            {
              "internalType": "enum Escrow.Status",
              "name": "status",
              "type": "uint8"
            },
            {
              "internalType": "bool",
              "name": "provided",
              "type": "bool"
            },
            {
              "internalType": "bool",
              "name": "confirmed",
              "type": "bool"
            }
          ],
          "internalType": "struct Escrow.OffersStruct[]",
          "name": "",
          "type": "tuple[]"
        }
      ],
      "stateMutability": "view",
      "type": "function"
    },
    {
      "inputs": [
        {
          "internalType": "uint256",
          "name": "",
          "type": "uint256"
        }
      ],
      "name": "ownerOf",
      "outputs": [
        {
          "internalType": "address",
          "name": "",
          "type": "address"
        }
      ],
      "stateMutability": "view",
      "type": "function"
    },
    {
      "inputs": [
        {
          "internalType": "address",
          "name": "",
          "type": "address"
        },
        {
          "internalType": "uint256",
          "name": "",
          "type": "uint256"
        }
      ],
      "name": "requested",
      "outputs": [
        {
          "internalType": "bool",
          "name": "",
          "type": "bool"
        }
      ],
      "stateMutability": "view",
      "type": "function"
    },
    {
      "inputs": [],
      "name": "totalConfirmed",
      "outputs": [
        {
          "internalType": "uint256",
          "name": "",
          "type": "uint256"
        }
      ],
      "stateMutability": "view",
      "type": "function"
    },
    {
      "inputs": [],
      "name": "totalOffers",
      "outputs": [
        {
          "internalType": "uint256",
          "name": "",
          "type": "uint256"
        }
      ],
      "stateMutability": "view",
      "type": "function"
    },
    {
      "inputs": [
        {
          "internalType": "uint256",
          "name": "offerId",
          "type": "uint256"
        }
      ],
      "name": "workFinished",
      "outputs": [
        {
          "internalType": "bool",
          "name": "",
          "type": "bool"
        }
      ],
      "stateMutability": "nonpayable",
      "type": "function"
    }
  ],
  "bytecode": {
    "object": "0x608060405234801561001057600080fd5b506001600081815581546001600160a01b0319163317909155600281905560038190556004556118e2806100456000396000f3fe6080604052600436106100e85760003560e01c806364f776831161008a5780639df7aeda116100595780639df7aeda146102d4578063a9fd8ed1146102ea578063ba42a27614610300578063edc9fb011461031357600080fd5b806364f776831461023957806366813e7c146102595780636754cc281461027957806370870952146102b457600080fd5b80634579268a116100c65780634579268a146101795780635ddcd19e146101a65780635f022920146101bb5780636352211e146101eb57600080fd5b80633a178d99146100ed5780633ee992ee146101335780634028a0f114610155575b600080fd5b3480156100f957600080fd5b5061011d6101083660046111f1565b60096020526000908152604090205460ff1681565b60405161012a9190611220565b60405180910390f35b34801561013f57600080fd5b50610148610333565b60405161012a9190611330565b34801561016157600080fd5b5061016b60045481565b60405190815260200161012a565b34801561018557600080fd5b506101996101943660046111f1565b610514565b60405161012a9190611392565b3480156101b257600080fd5b50610148610667565b3480156101c757600080fd5b506101db6101d63660046111f1565b6107ff565b604051901515815260200161012a565b3480156101f757600080fd5b506102216102063660046111f1565b6008602052600090815260409020546001600160a01b031681565b6040516001600160a01b03909116815260200161012a565b34801561024557600080fd5b50600154610221906001600160a01b031681565b34801561026557600080fd5b506101db6102743660046113ac565b610931565b34801561028557600080fd5b506101db6102943660046113fd565b600760209081526000928352604080842090915290825290205460ff1681565b3480156102c057600080fd5b506101db6102cf366004611427565b610aed565b3480156102e057600080fd5b5061016b60025481565b3480156102f657600080fd5b5061016b60035481565b6101db61030e366004611453565b610ca8565b34801561031f57600080fd5b506101db61032e3660046111f1565b610f5b565b606060035467ffffffffffffffff811115610350576103506114c5565b60405190808252806020026020018201604052801561038957816020015b610376611189565b81526020019060019003908161036e5790505b50905060005b600354811015610510576005600082815260200190815260200160002060405180610100016040529081600082015481526020016001820180546103d2906114db565b80601f01602080910402602001604051908101604052809291908181526020018280546103fe906114db565b801561044b5780601f106104205761010080835404028352916020019161044b565b820191906000526020600020905b81548152906001019060200180831161042e57829003601f168201915b50505091835250506002820154602082015260038201546001600160a01b0390811660408301526004808401549182166060840152608090920191600160a01b90910460ff16908111156104a1576104a161120a565b60048111156104b2576104b261120a565b81526004919091015460ff600160a81b8204811615156020840152600160b01b90910416151560409091015282518390839081106104f2576104f2611515565b6020026020010181905250808061050890611541565b91505061038f565b5090565b61051c611189565b600560008381526020019081526020016000206040518061010001604052908160008201548152602001600182018054610555906114db565b80601f0160208091040260200160405190810160405280929190818152602001828054610581906114db565b80156105ce5780601f106105a3576101008083540402835291602001916105ce565b820191906000526020600020905b8154815290600101906020018083116105b157829003601f168201915b50505091835250506002820154602082015260038201546001600160a01b0390811660408301526004808401549182166060840152608090920191600160a01b90910460ff16908111156106245761062461120a565b60048111156106355761063561120a565b81526004919091015460ff600160a81b8204811615156020840152600160b01b90910416151560409091015292915050565b336000908152600660209081526040808320805482518185028101850190935280835260609492939192909184015b828210156107f6578382906000526020600020906005020160405180610100016040529081600082015481526020016001820180546106d4906114db565b80601f0160208091040260200160405190810160405280929190818152602001828054610700906114db565b801561074d5780601f106107225761010080835404028352916020019161074d565b820191906000526020600020905b81548152906001019060200180831161073057829003601f168201915b50505091835250506002820154602082015260038201546001600160a01b0390811660408301526004808401549182166060840152608090920191600160a01b90910460ff16908111156107a3576107a361120a565b60048111156107b4576107b461120a565b81526004919091015460ff600160a81b820481161515602080850191909152600160b01b90920416151560409092019190915290825260019092019101610696565b50505050905090565b6000818152600860205260408120546001600160a01b031633036108765760405162461bcd60e51b8152602060048201526024808201527f4f776e65722063616e6e6f74206170706c7920666f7220686973206f776e204f604482015263333332b960e11b60648201526084015b60405180910390fd5b600160008381526009602052604090205460ff16600181111561089b5761089b61120a565b146108de5760405162461bcd60e51b81526020600482015260136024820152724f66666572206e6f7420617661696c61626c6560681b604482015260640161086d565b336000818152600760209081526040808320868452909152808220805460ff191660011790555160008051602061188d833981519152916109219186919061155a565b60405180910390a2506001919050565b6000828152600860205260408120546001600160a01b0316331461098d5760405162461bcd60e51b81526020600482015260136024820152724f6e6c79206f776e657220616c6c6f7765642160681b604482015260640161086d565b600083815260056020526040902060040154600160a81b900460ff166109f55760405162461bcd60e51b815260206004820152601760248201527f576f726b20686173206e6f74206265656e20646f6e6521000000000000000000604482015260640161086d565b8115610a8e5760008381526005602052604090206004810154600290910154610a27916001600160a01b0316906110ea565b5060008381526005602052604081206002908101548154909290610a4c90849061158f565b909155505060008381526005602052604081206004908101805462ff00ff60a01b191661400160a21b179055805491610a8483611541565b9190505550610ab1565b6000838152600560205260409020600401805460ff60a01b1916600360a01b1790555b336001600160a01b031660008051602061188d833981519152846003604051610adb9291906115a2565b60405180910390a25060015b92915050565b6000828152600860205260408120546001600160a01b03163314610b485760405162461bcd60e51b815260206004820152601260248201527113db9b1e481bdddb995c88185b1b1bddd95960721b604482015260640161086d565b600160008481526009602052604090205460ff166001811115610b6d57610b6d61120a565b14610baf5760405162461bcd60e51b81526020600482015260126024820152714974656d206e6f7420617661696c61626c6560701b604482015260640161086d565b6001600160a01b038216600090815260076020908152604080832086845290915290205460ff16610c2e5760405162461bcd60e51b8152602060048201526024808201527f576f726b657220686173206e6f74206170706c69656420666f7220746865206f604482015263333332b960e11b606482015260840161086d565b60008381526009602052604081205460ff166001811115610c5157610c5161120a565b50506000838152600560205260409081902060040180546001600160a01b0385166001600160a81b031990911617600160a01b17905551339060008051602061188d83398151915290610adb9086906001906115d6565b600081610d065760405162461bcd60e51b815260206004820152602660248201527f546865206e616d65206f6620796f7572206f666665722063616e6e6f7420626560448201526520656d70747960d01b606482015260840161086d565b60003411610d615760405162461bcd60e51b815260206004820152602260248201527f4f6666657220416d6f756e742063616e6e6f74206265207a65726f2065746865604482015261727360f01b606482015260840161086d565b6003805460009182610d7283611541565b90915550600081815260056020526040902081815590915060018101610d99858783611659565b503460028201556003810180546001600160a01b0319163390811790915560048201805460ff60a01b1916905560009081526006602090815260408220805460018181018355918452919092208354600590920201908155829181810190610e039084018261171a565b506002828101549082015560038083015490820180546001600160a01b03199081166001600160a01b0393841617909155600480850180548286018054948516919095169081178555905460ff600160a01b918290041694936001600160a81b031916909117918490811115610e7b57610e7b61120a565b02179055506004918201805491909201805460ff600160a81b938490048116151590930260ff60a81b198216811783559354600160b01b90819004909316151590920260ff60b01b1990931661ffff60a81b1990921691909117919091179055600082815260086020908152604080832080546001600160a01b0319163317905560099091528120805460ff1916600117905560028054349290610f209084906117f7565b9091555050604051339060008051602061188d83398151915290610f4890859060009061180a565b60405180910390a2506001949350505050565b6000818152600560205260408120600401546001600160a01b03163314610fd25760405162461bcd60e51b815260206004820152602560248201527f546865206f6666657220686173206e6f74206265656e206177617264656420746044820152646f20796f7560d81b606482015260840161086d565b600082815260056020526040902060040154600160a81b900460ff161561103b5760405162461bcd60e51b815260206004820152601e60248201527f576f726b2068617320616c7265616479206265656e2070726f76696465640000604482015260640161086d565b600082815260056020526040902060040154600160b01b900460ff16156110a45760405162461bcd60e51b815260206004820152601f60248201527f576f726b2068617320616c7265616479206265656e20636f6e6669726d656400604482015260640161086d565b60008281526005602052604090819020600401805461ffff60a01b1916608160a11b17905551339060008051602061188d83398151915290610921908590600290611843565b600080836001600160a01b03168360405160006040518083038185875af1925050503d8060008114611138576040519150601f19603f3d011682016040523d82523d6000602084013e61113d565b606091505b505090508061117f5760405162461bcd60e51b815260206004820152600e60248201526d14185e5b595b9d0819985a5b195960921b604482015260640161086d565b5060019392505050565b60405180610100016040528060008152602001606081526020016000815260200160006001600160a01b0316815260200160006001600160a01b03168152602001600060048111156111dd576111dd61120a565b815260006020820181905260409091015290565b60006020828403121561120357600080fd5b5035919050565b634e487b7160e01b600052602160045260246000fd5b60208101600283106112345761123461120a565b91905290565b6005811061124a5761124a61120a565b9052565b600061010082518452602080840151828287015280518084880152600093505b8084101561128d5781840183015187850161012001529282019261126e565b6101209350600084828901015260408601516040880152606086015192506112c060608801846001600160a01b03169052565b608086015192506112dc60808801846001600160a01b03169052565b60a086015192506112f060a088018461123a565b60c0860151925061130560c088018415159052565b60e0860151925061131a60e088018415159052565b601f01601f191695909501909101949350505050565b6000602080830181845280855180835260408601915060408160051b870101925083870160005b8281101561138557603f1988860301845261137385835161124e565b94509285019290850190600101611357565b5092979650505050505050565b6020815260006113a5602083018461124e565b9392505050565b600080604083850312156113bf57600080fd5b82359150602083013580151581146113d657600080fd5b809150509250929050565b80356001600160a01b03811681146113f857600080fd5b919050565b6000806040838503121561141057600080fd5b611419836113e1565b946020939093013593505050565b6000806040838503121561143a57600080fd5b8235915061144a602084016113e1565b90509250929050565b6000806020838503121561146657600080fd5b823567ffffffffffffffff8082111561147e57600080fd5b818501915085601f83011261149257600080fd5b8135818111156114a157600080fd5b8660208285010111156114b357600080fd5b60209290920196919550909350505050565b634e487b7160e01b600052604160045260246000fd5b600181811c908216806114ef57607f821691505b60208210810361150f57634e487b7160e01b600052602260045260246000fd5b50919050565b634e487b7160e01b600052603260045260246000fd5b634e487b7160e01b600052601160045260246000fd5b6000600182016115535761155361152b565b5060010190565b82815260606020820181905260099082015268149154555154d5115160ba1b608082015260a081016113a5604083018461123a565b81810381811115610ae757610ae761152b565b82815260606020820181905260089082015267111254d41555115160c21b608082015260a081016113a5604083018461123a565b828152606060208201819052600890820152671054141493d5915160c21b608082015260a081016113a5604083018461123a565b601f82111561165457600081815260208120601f850160051c810160208610156116315750805b601f850160051c820191505b818110156116505782815560010161163d565b5050505b505050565b67ffffffffffffffff831115611671576116716114c5565b6116858361167f83546114db565b8361160a565b6000601f8411600181146116b957600085156116a15750838201355b600019600387901b1c1916600186901b178355611713565b600083815260209020601f19861690835b828110156116ea57868501358255602094850194600190920191016116ca565b50868210156117075760001960f88860031b161c19848701351681555b505060018560011b0183555b5050505050565b818103611725575050565b61172f82546114db565b67ffffffffffffffff811115611747576117476114c5565b61175b8161175584546114db565b8461160a565b6000601f82116001811461178f57600083156117775750848201545b600019600385901b1c1916600184901b178455611713565b600085815260209020601f19841690600086815260209020845b838110156117c957828601548255600195860195909101906020016117a9565b50858310156117e75781850154600019600388901b60f8161c191681555b5050505050600190811b01905550565b80820180821115610ae757610ae761152b565b828152606060208201819052600d908201526c13d19191548810d49150551151609a1b608082015260a081016113a5604083018461123a565b8281526060602082018190526017908201527f574f524b20484153204245454e20434f4d504c45544544000000000000000000608082015260a081016113a5604083018461123a56fe23ad0062ad47da0f27f5c07751751e4b60afc16bf6fe03a24266a01ec4897931a264697066735822122010b1cad25337f10a39873145e1d19e8f830f8edf05873036c3250f3401a5a99464736f6c63430008110033",
    "linkReferences": {}
  },
  "methodIdentifiers": {
    "applyOffer(uint256)": "5f022920",
    "approveWorker(uint256,address)": "70870952",
    "confirmWork(uint256,bool)": "66813e7c",
    "createOffer(string)": "ba42a276",
    "escrowAcc()": "64f77683",
    "escrowBal()": "9df7aeda",
    "getOffer(uint256)": "4579268a",
    "getOffers()": "3ee992ee",
    "isAvailable(uint256)": "3a178d99",
    "myOffers()": "5ddcd19e",
    "ownerOf(uint256)": "6352211e",
    "requested(address,uint256)": "6754cc28",
    "totalConfirmed()": "4028a0f1",
    "totalOffers()": "a9fd8ed1",
    "workFinished(uint256)": "edc9fb01"
  },
  "id": 2
}