{
  "abi": [
    {
      "inputs": [],
      "stateMutability": "nonpayable",
      "type": "constructor"
    },
    {
      "anonymous": false,
      "inputs": [
        {
          "indexed": false,
          "internalType": "uint256",
          "name": "offerId",
          "type": "uint256"
        },
        {
          "indexed": false,
          "internalType": "string",
          "name": "actionType",
          "type": "string"
        },
        {
          "indexed": false,
          "internalType": "enum Escrow.Status",
          "name": "status",
          "type": "uint8"
        },
        {
          "indexed": true,
          "internalType": "address",
          "name": "executor",
          "type": "address"
        }
      ],
      "name": "Action",
      "type": "event"
    },
    {
      "inputs": [
        {
          "internalType": "uint256",
          "name": "offerId",
          "type": "uint256"
        }
      ],
      "name": "applyOffer",
      "outputs": [
        {
          "internalType": "bool",
          "name": "",
          "type": "bool"
        }
      ],
      "stateMutability": "nonpayable",
      "type": "function"
    },
    {
      "inputs": [
        {
          "internalType": "uint256",
          "name": "offerId",
          "type": "uint256"
        },
        {
          "internalType": "address",
          "name": "worker",
          "type": "address"
        }
      ],
      "name": "approveWorker",
      "outputs": [
        {
          "internalType": "bool",
          "name": "",
          "type": "bool"
        }
      ],
      "stateMutability": "nonpayable",
      "type": "function"
    },
    {
      "inputs": [
        {
          "internalType": "uint256",
          "name": "offerId",
          "type": "uint256"
        },
        {
          "internalType": "bool",
          "name": "provided",
          "type": "bool"
        }
      ],
      "name": "confirmWork",
      "outputs": [
        {
          "internalType": "bool",
          "name": "",
          "type": "bool"
        }
      ],
      "stateMutability": "nonpayable",
      "type": "function"
    },
    {
      "inputs": [
        {
          "internalType": "string",
          "name": "offerName",
          "type": "string"
        }
      ],
      "name": "createOffer",
      "outputs": [
        {
          "internalType": "bool",
          "name": "",
          "type": "bool"
        }
      ],
      "stateMutability": "payable",
      "type": "function"
    },
    {
      "inputs": [],
      "name": "escrowAcc",
      "outputs": [
        {
          "internalType": "address",
          "name": "",
          "type": "address"
        }
      ],
      "stateMutability": "view",
      "type": "function"
    },
    {
      "inputs": [],
      "name": "escrowBal",
      "outputs": [
        {
          "internalType": "uint256",
          "name": "",
          "type": "uint256"
        }
      ],
      "stateMutability": "view",
      "type": "function"
    },
    {
      "inputs": [
        {
          "internalType": "uint256",
          "name": "offerId",
          "type": "uint256"
        }
      ],
      "name": "getOffer",
      "outputs": [
        {
          "components": [
            {
              "internalType": "uint256",
              "name": "offerId",
              "type": "uint256"
            },
            {
              "internalType": "string",
              "name": "name",
              "type": "string"
            },
            {
              "internalType": "uint256",
              "name": "amount",
              "type": "uint256"
            },
            {
              "internalType": "address",
              "name": "owner",
              "type": "address"
            },
            {
              "internalType": "address",
              "name": "worker",
              "type": "address"
            },
            {
              "internalType": "enum Escrow.Status",
              "name": "status",
              "type": "uint8"
            },
            {
              "internalType": "bool",
              "name": "provided",
              "type": "bool"
            },
            {
              "internalType": "bool",
              "name": "confirmed",
              "type": "bool"
            }
          ],
          "internalType": "struct Escrow.OffersStruct",
          "name": "",
          "type": "tuple"
        }
      ],
      "stateMutability": "view",
      "type": "function"
    },
    {
      "inputs": [],
      "name": "getOffers",
      "outputs": [
        {
          "components": [
            {
              "internalType": "uint256",
              "name": "offerId",
              "type": "uint256"
            },
            {
              "internalType": "string",
              "name": "name",
              "type": "string"
            },
            {
              "internalType": "uint256",
              "name": "amount",
              "type": "uint256"
            },
            {
              "internalType": "address",
              "name": "owner",
              "type": "address"
            },
            {
              "internalType": "address",
              "name": "worker",
              "type": "address"
            },
            {
              "internalType": "enum Escrow.Status",
              "name": "status",
              "type": "uint8"
            },
            {
              "internalType": "bool",
              "name": "provided",
              "type": "bool"
            },
            {
              "internalType": "bool",
              "name": "confirmed",
              "type": "bool"
            }
          ],
          "internalType": "struct Escrow.OffersStruct[]",
          "name": "props",
          "type": "tuple[]"
        }
      ],
      "stateMutability": "view",
      "type": "function"
    },
    {
      "inputs": [
        {
          "internalType": "uint256",
          "name": "",
          "type": "uint256"
        }
      ],
      "name": "isAvailable",
      "outputs": [
        {
          "internalType": "enum Escrow.Available",
          "name": "",
          "type": "uint8"
        }
      ],
      "stateMutability": "view",
      "type": "function"
    },
    {
      "inputs": [],
      "name": "myOffers",
      "outputs": [
        {
          "components": [
            {
              "internalType": "uint256",
              "name": "offerId",
              "type": "uint256"
            },
            {
              "internalType": "string",
              "name": "name",
              "type": "string"
            },
            {
              "internalType": "uint256",
              "name": "amount",
              "type": "uint256"
            },
            {
              "internalType": "address",
              "name": "owner",
              "type": "address"
            },
            {
              "internalType": "address",
              "name": "worker",
              "type": "address"
            },
            {
              "internalType": "enum Escrow.Status",
              "name": "status",
              "type": "uint8"
            },
            {
              "internalType": "bool",
              "name": "provided",
              "type": "bool"
            },
            {
              "internalType": "bool",
              "name": "confirmed",
              "type": "bool"
            }
          ],
          "internalType": "struct Escrow.OffersStruct[]",
          "name": "",
          "type": "tuple[]"
        }
      ],
      "stateMutability": "view",
      "type": "function"
    },
    {
      "inputs": [
        {
          "internalType": "uint256",
          "name": "",
          "type": "uint256"
        }
      ],
      "name": "ownerOf",
      "outputs": [
        {
          "internalType": "address",
          "name": "",
          "type": "address"
        }
      ],
      "stateMutability": "view",
      "type": "function"
    },
    {
      "inputs": [
        {
          "internalType": "address",
          "name": "",
          "type": "address"
        },
        {
          "internalType": "uint256",
          "name": "",
          "type": "uint256"
        }
      ],
      "name": "requested",
      "outputs": [
        {
          "internalType": "bool",
          "name": "",
          "type": "bool"
        }
      ],
      "stateMutability": "view",
      "type": "function"
    },
    {
      "inputs": [],
      "name": "totalConfirmed",
      "outputs": [
        {
          "internalType": "uint256",
          "name": "",
          "type": "uint256"
        }
      ],
      "stateMutability": "view",
      "type": "function"
    },
    {
      "inputs": [],
      "name": "totalOffers",
      "outputs": [
        {
          "internalType": "uint256",
          "name": "",
          "type": "uint256"
        }
      ],
      "stateMutability": "view",
      "type": "function"
    },
    {
      "inputs": [
        {
          "internalType": "uint256",
          "name": "offerId",
          "type": "uint256"
        }
      ],
      "name": "workFinished",
      "outputs": [
        {
          "internalType": "bool",
          "name": "",
          "type": "bool"
        }
      ],
      "stateMutability": "nonpayable",
      "type": "function"
    }
  ],
  "bytecode": {
    "object": "0x608060405234801561001057600080fd5b506001600081815581546001600160a01b031916331790915560028190556003819055600455611864806100456000396000f3fe6080604052600436106100e85760003560e01c806364f776831161008a5780639df7aeda116100595780639df7aeda146102d4578063a9fd8ed1146102ea578063ba42a27614610300578063edc9fb011461031357600080fd5b806364f776831461023957806366813e7c146102595780636754cc281461027957806370870952146102b457600080fd5b80634579268a116100c65780634579268a146101795780635ddcd19e146101a65780635f022920146101bb5780636352211e146101eb57600080fd5b80633a178d99146100ed5780633ee992ee146101335780634028a0f114610155575b600080fd5b3480156100f957600080fd5b5061011d6101083660046111a7565b60096020526000908152604090205460ff1681565b60405161012a91906111d6565b60405180910390f35b34801561013f57600080fd5b50610148610333565b60405161012a91906112e6565b34801561016157600080fd5b5061016b60045481565b60405190815260200161012a565b34801561018557600080fd5b506101996101943660046111a7565b610513565b60405161012a9190611348565b3480156101b257600080fd5b50610148610665565b3480156101c757600080fd5b506101db6101d63660046111a7565b6107fc565b604051901515815260200161012a565b3480156101f757600080fd5b506102216102063660046111a7565b6008602052600090815260409020546001600160a01b031681565b6040516001600160a01b03909116815260200161012a565b34801561024557600080fd5b50600154610221906001600160a01b031681565b34801561026557600080fd5b506101db610274366004611362565b61092e565b34801561028557600080fd5b506101db6102943660046113b3565b600760209081526000928352604080842090915290825290205460ff1681565b3480156102c057600080fd5b506101db6102cf3660046113dd565b610a92565b3480156102e057600080fd5b5061016b60025481565b3480156102f657600080fd5b5061016b60035481565b6101db61030e366004611409565b610c5e565b34801561031f57600080fd5b506101db61032e3660046111a7565b610f11565b606060035467ffffffffffffffff8111156103505761035061147b565b60405190808252806020026020018201604052801561038957816020015b61037661113f565b81526020019060019003908161036e5790505b50905060005b60035481101561050f576005600082815260200190815260200160002060405180610100016040529081600082015481526020016001820180546103d290611491565b80601f01602080910402602001604051908101604052809291908181526020018280546103fe90611491565b801561044b5780601f106104205761010080835404028352916020019161044b565b820191906000526020600020905b81548152906001019060200180831161042e57829003601f168201915b5050509183525050600282015460208201526003808301546001600160a01b03908116604084015260048401549081166060840152608090920191600160a01b900460ff16908111156104a0576104a06111c0565b60038111156104b1576104b16111c0565b81526004919091015460ff600160a81b8204811615156020840152600160b01b90910416151560409091015282518390839081106104f1576104f16114cb565b60200260200101819052508080610507906114f7565b91505061038f565b5090565b61051b61113f565b60056000838152602001908152602001600020604051806101000160405290816000820154815260200160018201805461055490611491565b80601f016020809104026020016040519081016040528092919081815260200182805461058090611491565b80156105cd5780601f106105a2576101008083540402835291602001916105cd565b820191906000526020600020905b8154815290600101906020018083116105b057829003601f168201915b5050509183525050600282015460208201526003808301546001600160a01b03908116604084015260048401549081166060840152608090920191600160a01b900460ff1690811115610622576106226111c0565b6003811115610633576106336111c0565b81526004919091015460ff600160a81b8204811615156020840152600160b01b90910416151560409091015292915050565b336000908152600660209081526040808320805482518185028101850190935280835260609492939192909184015b828210156107f3578382906000526020600020906005020160405180610100016040529081600082015481526020016001820180546106d290611491565b80601f01602080910402602001604051908101604052809291908181526020018280546106fe90611491565b801561074b5780601f106107205761010080835404028352916020019161074b565b820191906000526020600020905b81548152906001019060200180831161072e57829003601f168201915b5050509183525050600282015460208201526003808301546001600160a01b03908116604084015260048401549081166060840152608090920191600160a01b900460ff16908111156107a0576107a06111c0565b60038111156107b1576107b16111c0565b81526004919091015460ff600160a81b820481161515602080850191909152600160b01b90920416151560409092019190915290825260019092019101610694565b50505050905090565b6000818152600860205260408120546001600160a01b031633036108735760405162461bcd60e51b8152602060048201526024808201527f4f776e65722063616e6e6f74206170706c7920666f7220686973206f776e204f604482015263333332b960e11b60648201526084015b60405180910390fd5b600160008381526009602052604090205460ff166001811115610898576108986111c0565b146108db5760405162461bcd60e51b81526020600482015260136024820152724f66666572206e6f7420617661696c61626c6560681b604482015260640161086a565b336000818152600760209081526040808320868452909152808220805460ff191660011790555160008051602061180f8339815191529161091e91869190611510565b60405180910390a2506001919050565b6000828152600860205260408120546001600160a01b0316331461098a5760405162461bcd60e51b81526020600482015260136024820152724f6e6c79206f776e657220616c6c6f7765642160681b604482015260640161086a565b600083815260056020526040902060040154600160a81b900460ff166109f25760405162461bcd60e51b815260206004820152601760248201527f576f726b20686173206e6f74206265656e20646f6e6521000000000000000000604482015260640161086a565b8115610a885760008381526005602052604090206004810154600290910154610a24916001600160a01b0316906110a0565b5060008381526005602052604081206002908101548154909290610a49908490611545565b909155505060008381526005602052604081206004908101805462ff00ff60a01b19166201000360a01b179055805491610a82836114f7565b91905055505b5060015b92915050565b6000828152600860205260408120546001600160a01b03163314610aed5760405162461bcd60e51b815260206004820152601260248201527113db9b1e481bdddb995c88185b1b1bddd95960721b604482015260640161086a565b600160008481526009602052604090205460ff166001811115610b1257610b126111c0565b14610b545760405162461bcd60e51b81526020600482015260126024820152714974656d206e6f7420617661696c61626c6560701b604482015260640161086a565b6001600160a01b038216600090815260076020908152604080832086845290915290205460ff16610bd35760405162461bcd60e51b8152602060048201526024808201527f576f726b657220686173206e6f74206170706c69656420666f7220746865206f604482015263333332b960e11b606482015260840161086a565b60008381526009602052604081205460ff166001811115610bf657610bf66111c0565b50506000838152600560205260409081902060040180546001600160a01b0385166001600160a81b031990911617600160a01b17905551339060008051602061180f83398151915290610c4d908690600190611558565b60405180910390a250600192915050565b600081610cbc5760405162461bcd60e51b815260206004820152602660248201527f546865206e616d65206f6620796f7572206f666665722063616e6e6f7420626560448201526520656d70747960d01b606482015260840161086a565b60003411610d175760405162461bcd60e51b815260206004820152602260248201527f4f6666657220416d6f756e742063616e6e6f74206265207a65726f2065746865604482015261727360f01b606482015260840161086a565b6003805460009182610d28836114f7565b90915550600081815260056020526040902081815590915060018101610d4f8587836115db565b503460028201556003810180546001600160a01b0319163390811790915560048201805460ff60a01b1916905560009081526006602090815260408220805460018181018355918452919092208354600590920201908155829181810190610db99084018261169c565b506002828101549082015560038083015481830180546001600160a01b03199081166001600160a01b03938416179091556004808601805491860180549384169290941691821784555460ff600160a01b9182900416946001600160a81b0319909316909117918490811115610e3157610e316111c0565b02179055506004918201805491909201805460ff600160a81b938490048116151590930260ff60a81b198216811783559354600160b01b90819004909316151590920260ff60b01b1990931661ffff60a81b1990921691909117919091179055600082815260086020908152604080832080546001600160a01b0319163317905560099091528120805460ff1916600117905560028054349290610ed6908490611779565b9091555050604051339060008051602061180f83398151915290610efe90859060009061178c565b60405180910390a2506001949350505050565b6000818152600560205260408120600401546001600160a01b03163314610f885760405162461bcd60e51b815260206004820152602560248201527f546865206f6666657220686173206e6f74206265656e206177617264656420746044820152646f20796f7560d81b606482015260840161086a565b600082815260056020526040902060040154600160a81b900460ff1615610ff15760405162461bcd60e51b815260206004820152601e60248201527f576f726b2068617320616c7265616479206265656e2070726f76696465640000604482015260640161086a565b600082815260056020526040902060040154600160b01b900460ff161561105a5760405162461bcd60e51b815260206004820152601f60248201527f576f726b2068617320616c7265616479206265656e20636f6e6669726d656400604482015260640161086a565b60008281526005602052604090819020600401805461ffff60a01b1916608160a11b17905551339060008051602061180f8339815191529061091e9085906002906117c5565b600080836001600160a01b03168360405160006040518083038185875af1925050503d80600081146110ee576040519150601f19603f3d011682016040523d82523d6000602084013e6110f3565b606091505b50509050806111355760405162461bcd60e51b815260206004820152600e60248201526d14185e5b595b9d0819985a5b195960921b604482015260640161086a565b5060019392505050565b60405180610100016040528060008152602001606081526020016000815260200160006001600160a01b0316815260200160006001600160a01b0316815260200160006003811115611193576111936111c0565b815260006020820181905260409091015290565b6000602082840312156111b957600080fd5b5035919050565b634e487b7160e01b600052602160045260246000fd5b60208101600283106111ea576111ea6111c0565b91905290565b60048110611200576112006111c0565b9052565b600061010082518452602080840151828287015280518084880152600093505b8084101561124357818401830151878501610120015292820192611224565b61012093506000848289010152604086015160408801526060860151925061127660608801846001600160a01b03169052565b6080860151925061129260808801846001600160a01b03169052565b60a086015192506112a660a08801846111f0565b60c086015192506112bb60c088018415159052565b60e086015192506112d060e088018415159052565b601f01601f191695909501909101949350505050565b6000602080830181845280855180835260408601915060408160051b870101925083870160005b8281101561133b57603f19888603018452611329858351611204565b9450928501929085019060010161130d565b5092979650505050505050565b60208152600061135b6020830184611204565b9392505050565b6000806040838503121561137557600080fd5b823591506020830135801515811461138c57600080fd5b809150509250929050565b80356001600160a01b03811681146113ae57600080fd5b919050565b600080604083850312156113c657600080fd5b6113cf83611397565b946020939093013593505050565b600080604083850312156113f057600080fd5b8235915061140060208401611397565b90509250929050565b6000806020838503121561141c57600080fd5b823567ffffffffffffffff8082111561143457600080fd5b818501915085601f83011261144857600080fd5b81358181111561145757600080fd5b86602082850101111561146957600080fd5b60209290920196919550909350505050565b634e487b7160e01b600052604160045260246000fd5b600181811c908216806114a557607f821691505b6020821081036114c557634e487b7160e01b600052602260045260246000fd5b50919050565b634e487b7160e01b600052603260045260246000fd5b634e487b7160e01b600052601160045260246000fd5b600060018201611509576115096114e1565b5060010190565b82815260606020820181905260099082015268149154555154d5115160ba1b608082015260a0810161135b60408301846111f0565b81810381811115610a8c57610a8c6114e1565b828152606060208201819052600890820152671054141493d5915160c21b608082015260a0810161135b60408301846111f0565b601f8211156115d657600081815260208120601f850160051c810160208610156115b35750805b601f850160051c820191505b818110156115d2578281556001016115bf565b5050505b505050565b67ffffffffffffffff8311156115f3576115f361147b565b611607836116018354611491565b8361158c565b6000601f84116001811461163b57600085156116235750838201355b600019600387901b1c1916600186901b178355611695565b600083815260209020601f19861690835b8281101561166c578685013582556020948501946001909201910161164c565b50868210156116895760001960f88860031b161c19848701351681555b505060018560011b0183555b5050505050565b8181036116a7575050565b6116b18254611491565b67ffffffffffffffff8111156116c9576116c961147b565b6116dd816116d78454611491565b8461158c565b6000601f82116001811461171157600083156116f95750848201545b600019600385901b1c1916600184901b178455611695565b600085815260209020601f19841690600086815260209020845b8381101561174b578286015482556001958601959091019060200161172b565b50858310156117695781850154600019600388901b60f8161c191681555b5050505050600190811b01905550565b80820180821115610a8c57610a8c6114e1565b828152606060208201819052600d908201526c13d19191548810d49150551151609a1b608082015260a0810161135b60408301846111f0565b8281526060602082018190526017908201527f574f524b20484153204245454e20434f4d504c45544544000000000000000000608082015260a0810161135b60408301846111f056fe23ad0062ad47da0f27f5c07751751e4b60afc16bf6fe03a24266a01ec4897931a2646970667358221220443cc73b2e283a48848370523d605d2c1b12187c89e667716c087d52383b550164736f6c63430008110033",
    "linkReferences": {}
  },
  "methodIdentifiers": {
    "applyOffer(uint256)": "5f022920",
    "approveWorker(uint256,address)": "70870952",
    "confirmWork(uint256,bool)": "66813e7c",
    "createOffer(string)": "ba42a276",
    "escrowAcc()": "64f77683",
    "escrowBal()": "9df7aeda",
    "getOffer(uint256)": "4579268a",
    "getOffers()": "3ee992ee",
    "isAvailable(uint256)": "3a178d99",
    "myOffers()": "5ddcd19e",
    "ownerOf(uint256)": "6352211e",
    "requested(address,uint256)": "6754cc28",
    "totalConfirmed()": "4028a0f1",
    "totalOffers()": "a9fd8ed1",
    "workFinished(uint256)": "edc9fb01"
  },
  "id": 8
}